{
  "address": "0x66E8cE76ad06f3e5bFfbD23d9c889FCC95DcE35A",
  "abi": [
    {
      "inputs": [
        {
          "internalType": "string",
          "name": "tokenName",
          "type": "string"
        },
        {
          "internalType": "string",
          "name": "tokenSymbol",
          "type": "string"
        },
        {
          "internalType": "address",
          "name": "checker",
          "type": "address"
        }
      ],
      "stateMutability": "nonpayable",
      "type": "constructor"
    },
    {
      "inputs": [],
      "name": "ComplianceCheckerNotSet",
      "type": "error"
    },
    {
      "inputs": [],
      "name": "InvalidOwner",
      "type": "error"
    },
    {
      "inputs": [],
      "name": "OnlyOwner",
      "type": "error"
    },
    {
      "inputs": [],
      "name": "OnlyPendingOwner",
      "type": "error"
    },
    {
      "inputs": [],
      "name": "TotalSupplyOverflow",
      "type": "error"
    },
    {
      "inputs": [],
      "name": "UnauthorizedCiphertext",
      "type": "error"
    },
    {
      "inputs": [],
      "name": "ZamaProtocolUnsupported",
      "type": "error"
    },
    {
      "anonymous": false,
      "inputs": [
        {
          "indexed": true,
          "internalType": "address",
          "name": "owner",
          "type": "address"
        },
        {
          "indexed": true,
          "internalType": "address",
          "name": "spender",
          "type": "address"
        }
      ],
      "name": "Approval",
      "type": "event"
    },
    {
      "anonymous": false,
      "inputs": [
        {
          "indexed": true,
          "internalType": "address",
          "name": "newChecker",
          "type": "address"
        }
      ],
      "name": "ComplianceCheckerUpdated",
      "type": "event"
    },
    {
      "anonymous": false,
      "inputs": [
        {
          "indexed": true,
          "internalType": "address",
          "name": "to",
          "type": "address"
        },
        {
          "indexed": true,
          "internalType": "uint256",
          "name": "amount",
          "type": "uint256"
        }
      ],
      "name": "Mint",
      "type": "event"
    },
    {
      "anonymous": false,
      "inputs": [
        {
          "indexed": true,
          "internalType": "address",
          "name": "currentOwner",
          "type": "address"
        },
        {
          "indexed": true,
          "internalType": "address",
          "name": "pendingOwner",
          "type": "address"
        }
      ],
      "name": "OwnershipTransferStarted",
      "type": "event"
    },
    {
      "anonymous": false,
      "inputs": [
        {
          "indexed": true,
          "internalType": "address",
          "name": "previousOwner",
          "type": "address"
        },
        {
          "indexed": true,
          "internalType": "address",
          "name": "newOwner",
          "type": "address"
        }
      ],
      "name": "OwnershipTransferred",
      "type": "event"
    },
    {
      "anonymous": false,
      "inputs": [
        {
          "indexed": true,
          "internalType": "address",
          "name": "from",
          "type": "address"
        },
        {
          "indexed": true,
          "internalType": "address",
          "name": "to",
          "type": "address"
        }
      ],
      "name": "Transfer",
      "type": "event"
    },
    {
      "inputs": [],
      "name": "DECIMALS",
      "outputs": [
        {
          "internalType": "uint8",
          "name": "",
          "type": "uint8"
        }
      ],
      "stateMutability": "view",
      "type": "function"
    },
    {
      "inputs": [],
      "name": "acceptOwnership",
      "outputs": [],
      "stateMutability": "nonpayable",
      "type": "function"
    },
    {
      "inputs": [
        {
          "internalType": "address",
          "name": "account",
          "type": "address"
        },
        {
          "internalType": "address",
          "name": "spender",
          "type": "address"
        }
      ],
      "name": "allowance",
      "outputs": [
        {
          "internalType": "euint64",
          "name": "",
          "type": "bytes32"
        }
      ],
      "stateMutability": "view",
      "type": "function"
    },
    {
      "inputs": [
        {
          "internalType": "address",
          "name": "spender",
          "type": "address"
        },
        {
          "internalType": "externalEuint64",
          "name": "encryptedAmount",
          "type": "bytes32"
        },
        {
          "internalType": "bytes",
          "name": "inputProof",
          "type": "bytes"
        }
      ],
      "name": "approve",
      "outputs": [
        {
          "internalType": "bool",
          "name": "success",
          "type": "bool"
        }
      ],
      "stateMutability": "nonpayable",
      "type": "function"
    },
    {
      "inputs": [
        {
          "internalType": "address",
          "name": "account",
          "type": "address"
        }
      ],
      "name": "balanceOf",
      "outputs": [
        {
          "internalType": "euint64",
          "name": "",
          "type": "bytes32"
        }
      ],
      "stateMutability": "view",
      "type": "function"
    },
    {
      "inputs": [],
      "name": "complianceChecker",
      "outputs": [
        {
          "internalType": "contract IComplianceChecker",
          "name": "",
          "type": "address"
        }
      ],
      "stateMutability": "view",
      "type": "function"
    },
    {
      "inputs": [],
      "name": "confidentialProtocolId",
      "outputs": [
        {
          "internalType": "uint256",
          "name": "",
          "type": "uint256"
        }
      ],
      "stateMutability": "view",
      "type": "function"
    },
    {
      "inputs": [],
      "name": "decimals",
      "outputs": [
        {
          "internalType": "uint8",
          "name": "",
          "type": "uint8"
        }
      ],
      "stateMutability": "pure",
      "type": "function"
    },
    {
      "inputs": [
        {
          "internalType": "address",
          "name": "to",
          "type": "address"
        },
        {
          "internalType": "uint256",
          "name": "amount",
          "type": "uint256"
        }
      ],
      "name": "mint",
      "outputs": [],
      "stateMutability": "nonpayable",
      "type": "function"
    },
    {
      "inputs": [],
      "name": "name",
      "outputs": [
        {
          "internalType": "string",
          "name": "",
          "type": "string"
        }
      ],
      "stateMutability": "view",
      "type": "function"
    },
    {
      "inputs": [],
      "name": "owner",
      "outputs": [
        {
          "internalType": "address",
          "name": "",
          "type": "address"
        }
      ],
      "stateMutability": "view",
      "type": "function"
    },
    {
      "inputs": [],
      "name": "pendingOwner",
      "outputs": [
        {
          "internalType": "address",
          "name": "",
          "type": "address"
        }
      ],
      "stateMutability": "view",
      "type": "function"
    },
    {
      "inputs": [
        {
          "internalType": "address",
          "name": "checker",
          "type": "address"
        }
      ],
      "name": "setComplianceChecker",
      "outputs": [],
      "stateMutability": "nonpayable",
      "type": "function"
    },
    {
      "inputs": [],
      "name": "symbol",
      "outputs": [
        {
          "internalType": "string",
          "name": "",
          "type": "string"
        }
      ],
      "stateMutability": "view",
      "type": "function"
    },
    {
      "inputs": [],
      "name": "totalSupply",
      "outputs": [
        {
          "internalType": "uint256",
          "name": "",
          "type": "uint256"
        }
      ],
      "stateMutability": "view",
      "type": "function"
    },
    {
      "inputs": [
        {
          "internalType": "address",
          "name": "to",
          "type": "address"
        },
        {
          "internalType": "externalEuint64",
          "name": "encryptedAmount",
          "type": "bytes32"
        },
        {
          "internalType": "bytes",
          "name": "inputProof",
          "type": "bytes"
        }
      ],
      "name": "transfer",
      "outputs": [
        {
          "internalType": "bool",
          "name": "success",
          "type": "bool"
        }
      ],
      "stateMutability": "nonpayable",
      "type": "function"
    },
    {
      "inputs": [
        {
          "internalType": "address",
          "name": "to",
          "type": "address"
        },
        {
          "internalType": "euint64",
          "name": "amount",
          "type": "bytes32"
        }
      ],
      "name": "transfer",
      "outputs": [
        {
          "internalType": "bool",
          "name": "success",
          "type": "bool"
        }
      ],
      "stateMutability": "nonpayable",
      "type": "function"
    },
    {
      "inputs": [
        {
          "internalType": "address",
          "name": "from",
          "type": "address"
        },
        {
          "internalType": "address",
          "name": "to",
          "type": "address"
        },
        {
          "internalType": "externalEuint64",
          "name": "encryptedAmount",
          "type": "bytes32"
        },
        {
          "internalType": "bytes",
          "name": "inputProof",
          "type": "bytes"
        }
      ],
      "name": "transferFrom",
      "outputs": [
        {
          "internalType": "bool",
          "name": "success",
          "type": "bool"
        }
      ],
      "stateMutability": "nonpayable",
      "type": "function"
    },
    {
      "inputs": [
        {
          "internalType": "address",
          "name": "newOwner",
          "type": "address"
        }
      ],
      "name": "transferOwnership",
      "outputs": [],
      "stateMutability": "nonpayable",
      "type": "function"
    }
  ],
  "transactionHash": "0xe3e06455e590a2e556c5bb24c7c11e2dae1a325549fdbbf30b10dab4f590e18e",
  "args": [
    "Zentity Token",
    "ZTY",
    "0x21c528B3C08D9Fc53b902C1Ee90a55ACa285dfe4"
  ],
  "numDeployments": 1,
  "solcInputHash": "93d280ff0d4e798a18947a9ed6015031",
  "bytecode": "0x608060405234801561000f575f5ffd5b50604051611a68380380611a6883398101604081905261002e9161034c565b6100e2610039610140565b80517f9e7b61f58c47dc699ac88507c4f5bb9f121c03808c5676a8078fe583e464970080546001600160a01b03199081166001600160a01b039384161790915560208301517f9e7b61f58c47dc699ac88507c4f5bb9f121c03808c5676a8078fe583e46497018054831691841691909117905560408301517f9e7b61f58c47dc699ac88507c4f5bb9f121c03808c5676a8078fe583e46497028054909216921691909117905550565b5f6100ed8482610455565b5060016100fa8382610455565b50600680546001600160a01b031916331790556001600160a01b0381161561013857600580546001600160a01b0319166001600160a01b0383161790555b50505061050f565b604080516060810182525f808252602082018190529181019190915246600103610199575060408051606080820183525f8083526020808401829052928401819052835191820184528082529181018290529182015290565b4662aa36a703610218575060408051606080820183525f8083526020808401829052928401528251908101835273f0ffdc93b7e186bc2f8cb3daa75d86d1930a433d81527392c920834ec8941d2c77d188936e1f7a6f49c1279181019190915273be0e383937d564d7ff0bc3b46c51f0bf8d5c311a9181019190915290565b46617a6903610296575060408051606080820183525f8083526020808401829052928401528251908101835273f0ffdc93b7e186bc2f8cb3daa75d86d1930a433d81527392c920834ec8941d2c77d188936e1f7a6f49c1279181019190915273be0e383937d564d7ff0bc3b46c51f0bf8d5c311a9181019190915290565b6040516373cac13b60e01b815260040160405180910390fd5b634e487b7160e01b5f52604160045260245ffd5b5f82601f8301126102d2575f5ffd5b81516001600160401b038111156102eb576102eb6102af565b604051601f8201601f19908116603f011681016001600160401b0381118282101715610319576103196102af565b604052818152838201602001851015610330575f5ffd5b8160208501602083015e5f918101602001919091529392505050565b5f5f5f6060848603121561035e575f5ffd5b83516001600160401b03811115610373575f5ffd5b61037f868287016102c3565b602086015190945090506001600160401b0381111561039c575f5ffd5b6103a8868287016102c3565b604086015190935090506001600160a01b03811681146103c6575f5ffd5b809150509250925092565b600181811c908216806103e557607f821691505b60208210810361040357634e487b7160e01b5f52602260045260245ffd5b50919050565b601f82111561045057805f5260205f20601f840160051c8101602085101561042e5750805b601f840160051c820191505b8181101561044d575f815560010161043a565b50505b505050565b81516001600160401b0381111561046e5761046e6102af565b6104828161047c84546103d1565b84610409565b6020601f8211600181146104b4575f831561049d5750848201515b5f19600385901b1c1916600184901b17845561044d565b5f84815260208120601f198516915b828110156104e357878501518255602094850194600190920191016104c3565b508482101561050057868401515f19600387901b60f8161c191681555b50505050600190811b01905550565b61154c8061051c5f395ff3fe608060405234801561000f575f5ffd5b506004361061011c575f3560e01c80637d32e7bd116100a9578063b32c10011161006e578063b32c100114610252578063c8fbd4b314610265578063dd62ed3e14610278578063e30c3978146102b0578063f2fde38b146102c3575f5ffd5b80637d32e7bd146101f15780638927b030146102045780638da5cb5b1461020c57806395d89b41146102375780639a0943521461023f575f5ffd5b806340c10f19116100ef57806340c10f19146101765780636015992b1461018b57806370a082311461019e57806379ba5097146101c65780637b7e0a5a146101ce575f5ffd5b806306fdde031461012057806318160ddd1461013e5780632e0f262514610155578063313ce5671461016f575b5f5ffd5b6101286102d6565b6040516101359190611219565b60405180910390f35b61014760025481565b604051908152602001610135565b61015d601281565b60405160ff9091168152602001610135565b601261015d565b610189610184366004611246565b610361565b005b61018961019936600461126e565b6104b2565b6101476101ac36600461126e565b6001600160a01b03165f9081526003602052604090205490565b610189610526565b6101e16101dc3660046112cc565b6105ad565b6040519015158152602001610135565b6101e16101ff366004611246565b610605565b610147610640565b60065461021f906001600160a01b031681565b6040516001600160a01b039091168152602001610135565b61012861064e565b6101e161024d366004611322565b61065b565b6101e16102603660046112cc565b6107a5565b60055461021f906001600160a01b031681565b61014761028636600461138c565b6001600160a01b039182165f90815260046020908152604080832093909416825291909152205490565b60075461021f906001600160a01b031681565b6101896102d136600461126e565b61086e565b5f80546102e2906113bd565b80601f016020809104026020016040519081016040528092919081815260200182805461030e906113bd565b80156103595780601f1061033057610100808354040283529160200191610359565b820191905f5260205f20905b81548152906001019060200180831161033c57829003601f168201915b505050505081565b6006546001600160a01b0316331461038c57604051635fc483c560e01b815260040160405180910390fd5b67ffffffffffffffff8111156103b55760405163e5cfe95760e01b815260040160405180910390fd5b60025467ffffffffffffffff906103cd9083906113f5565b11156103ec5760405163e5cfe95760e01b815260040160405180910390fd5b5f6103f682610911565b6001600160a01b0384165f9081526003602052604090205490915061041b9082610927565b6001600160a01b0384165f90815260036020526040902081905561043e90610955565b506001600160a01b0383165f908152600360205260409020546104619084610964565b508160025f82825461047391906113f5565b909155505060405182906001600160a01b038516907f0f6798a560793a54c3bcfe86a93cde1e73087d944c0ea20544137d4121396885905f90a3505050565b6006546001600160a01b031633146104dd57604051635fc483c560e01b815260040160405180910390fd5b600580546001600160a01b0319166001600160a01b0383169081179091556040517f7c1403a777cb1caaa0258a821061f56fd1e6bc77b3d5f81c0f5630a299947d16905f90a250565b6007546001600160a01b03163314610551576040516303c25d1960e61b815260040160405180910390fd5b60068054600780546001600160a01b03198084166001600160a01b038381169182179096559116909155604051929091169182907f8be0079c531659141344cd1fd0a4f28419497f9722a3daafe3b4186f6b6457e0905f90a350565b5f5f6105ee8585858080601f0160208091040260200160405190810160405280939291908181526020018383808284375f9201919091525061097692505050565b90506105fb338783610983565b9695505050505050565b5f61060f82610be4565b61062c57604051631a93b31b60e31b815260040160405180910390fd5b610637338484610983565b90505b92915050565b5f610649610bef565b905090565b600180546102e2906113bd565b5f5f61069c8585858080601f0160208091040260200160405190810160405280939291908181526020018383808284375f9201919091525061097692505050565b6001600160a01b0388165f908152600460209081526040808320338452909152812054919250906106ce908390610c23565b6001600160a01b0389165f9081526004602090815260408083203384529091528120549192509061072d9083906107059086610c51565b6001600160a01b038c165f908152600460209081526040808320338452909152902054610c7f565b6001600160a01b038a165f9081526004602090815260408083203384529091529020819055905061075d81610955565b50610768818a610964565b506107738133610964565b505f61078883856107835f610911565b610c7f565b90506107958a8a83610983565b9450505050505b95945050505050565b5f5f6107e68585858080601f0160208091040260200160405190810160405280939291908181526020018383808284375f9201919091525061097692505050565b335f9081526004602090815260408083206001600160a01b038b1684529091529020819055905061081681610955565b506108218133610964565b5061082c8187610964565b506040516001600160a01b0387169033907ff37f546c25e850257cc0c94f92bec94a17e2f0e884ddda268a25d8144b70eb6a905f90a350600195945050505050565b6006546001600160a01b0316331461089957604051635fc483c560e01b815260040160405180910390fd5b6001600160a01b0381166108c0576040516349e27cff60e01b815260040160405180910390fd5b600780546001600160a01b0319166001600160a01b03838116918217909255600654604051919216907f38d16b8cac22d99fc7c124b9cd0de2d3fa1faef420bfe791d8c362d765e22700905f90a350565b5f61063a8267ffffffffffffffff166005610cc6565b5f82610939576109365f610911565b92505b8161094a576109475f610911565b91505b61063783835f610d55565b5f6109608230610df8565b5090565b5f61096f8383610df8565b5090919050565b5f61063783836005610e6e565b6005545f9081906001600160a01b031615610ac257600554604051632c289dcf60e01b81526001600160a01b0387811660048301525f921690632c289dcf906024016020604051808303815f875af11580156109e1573d5f5f3e3d5ffd5b505050506040513d601f19601f82011682018060405250810190610a059190611414565b600554604051632c289dcf60e01b81526001600160a01b0388811660048301529293505f9290911690632c289dcf906024016020604051808303815f875af1158015610a53573d5f5f3e3d5ffd5b505050506040513d601f19601f82011682018060405250810190610a779190611414565b90505f610a848383610f68565b6001600160a01b0389165f9081526003602052604081205491925090610aab908890610c23565b9050610ab78282610f68565b945050505050610ae8565b6001600160a01b0385165f90815260036020526040902054610ae5908490610c23565b90505b5f610af782856107835f610911565b6001600160a01b0387165f9081526003602052604081205491925090610b1d9083610c51565b6001600160a01b0387165f9081526003602052604081205491925090610b439084610927565b6001600160a01b03808a165f90815260036020526040808220869055918a168152208190559050610b7382610955565b50610b7d81610955565b50610b888289610964565b50610b938188610964565b50866001600160a01b0316886001600160a01b03167f4853ae1b4d437c4255ac16cd3ceda3465975023f27cb141584cd9d44440fed8260405160405180910390a360019450505050505b9392505050565b5f61063a8233610f96565b5f46600103610bfe5750600190565b4662aa36a703610c0f575061271190565b46617a6903610c1e57505f1990565b505f90565b5f82610c3557610c325f610911565b92505b81610c4657610c435f610911565b91505b61063783835f61101a565b5f82610c6357610c605f610911565b92505b81610c7457610c715f610911565b91505b61063783835f61107d565b5f83610c9157610c8e5f6110e0565b93505b82610ca257610c9f5f610911565b92505b81610cb357610cb05f610911565b91505b610cbe8484846110fb565b949350505050565b5f5160206114d75f395f51905f5254604051639cd07acb60e01b81525f915f5160206114f75f395f51905f52916001600160a01b0390911690639cd07acb90610d15908790879060040161144b565b6020604051808303815f875af1158015610d31573d5f5f3e3d5ffd5b505050506040513d601f19601f82011682018060405250810190610cbe9190611414565b5f5f8215610d685750600160f81b610d6b565b505f5b5f5160206114d75f395f51905f525460405163022f65e760e31b81525f5160206114f75f395f51905f52916001600160a01b03169063117b2f3890610db89089908990879060040161145f565b6020604051808303815f875af1158015610dd4573d5f5f3e3d5ffd5b505050506040513d601f19601f820116820180604052508101906105fb9190611414565b5f5f5160206114f75f395f51905f528054604051635ca4b5b160e11b8152600481018690526001600160a01b03858116602483015292935091169063b9496b62906044015f604051808303815f87803b158015610e53575f5ffd5b505af1158015610e65573d5f5f3e3d5ffd5b50505050505050565b5f5160206114d75f395f51905f525460405163045fc19560e11b81525f915f5160206114f75f395f51905f52916001600160a01b03909116906308bf832a90610ec190889033908990899060040161147f565b6020604051808303815f875af1158015610edd573d5f5f3e3d5ffd5b505050506040513d601f19601f82011682018060405250810190610f019190611414565b8154604051630f8e573b60e21b8152600481018390523360248201529193506001600160a01b031690633e395cec906044015f604051808303815f87803b158015610f4a575f5ffd5b505af1158015610f5c573d5f5f3e3d5ffd5b50505050509392505050565b5f82610f7a57610f775f6110e0565b92505b81610f8b57610f885f6110e0565b91505b61063783835f611188565b5f805f5160206114f75f395f51905f5280546040516382027b6d60e01b8152600481018790526001600160a01b0386811660248301529293509116906382027b6d90604401602060405180830381865afa158015610ff6573d5f5f3e3d5ffd5b505050506040513d601f19601f82011682018060405250810190610cbe91906114b7565b5f5f821561102d5750600160f81b611030565b505f5b5f5160206114d75f395f51905f5254604051631d44e90160e21b81525f5160206114f75f395f51905f52916001600160a01b031690637513a40490610db89089908990879060040161145f565b5f5f82156110905750600160f81b611093565b505f5b5f5160206114d75f395f51905f52546040516303056db360e31b81525f5160206114f75f395f51905f52916001600160a01b03169063182b6d9890610db89089908990879060040161145f565b5f61063a826110ef575f6110f2565b60015b60ff165f610cc6565b5f805f5160206114f75f395f51905f526001810154604051637702dcff60e01b81526004810188905260248101879052604481018690529192506001600160a01b031690637702dcff906064016020604051808303815f875af1158015611164573d5f5f3e3d5ffd5b505050506040513d601f19601f8201168201806040525081019061079c9190611414565b5f5f821561119b5750600160f81b61119e565b505f5b5f5160206114d75f395f51905f525460405163d99882d560e01b81525f5160206114f75f395f51905f52916001600160a01b03169063d99882d590610db89089908990879060040161145f565b5f81518084528060208401602086015e5f602082860101526020601f19601f83011685010191505092915050565b602081525f61063760208301846111eb565b80356001600160a01b0381168114611241575f5ffd5b919050565b5f5f60408385031215611257575f5ffd5b6112608361122b565b946020939093013593505050565b5f6020828403121561127e575f5ffd5b6106378261122b565b5f5f83601f840112611297575f5ffd5b50813567ffffffffffffffff8111156112ae575f5ffd5b6020830191508360208285010111156112c5575f5ffd5b9250929050565b5f5f5f5f606085870312156112df575f5ffd5b6112e88561122b565b935060208501359250604085013567ffffffffffffffff81111561130a575f5ffd5b61131687828801611287565b95989497509550505050565b5f5f5f5f5f60808688031215611336575f5ffd5b61133f8661122b565b945061134d6020870161122b565b935060408601359250606086013567ffffffffffffffff81111561136f575f5ffd5b61137b88828901611287565b969995985093965092949392505050565b5f5f6040838503121561139d575f5ffd5b6113a68361122b565b91506113b46020840161122b565b90509250929050565b600181811c908216806113d157607f821691505b6020821081036113ef57634e487b7160e01b5f52602260045260245ffd5b50919050565b8082018082111561063a57634e487b7160e01b5f52601160045260245ffd5b5f60208284031215611424575f5ffd5b5051919050565b6054811061144757634e487b7160e01b5f52602160045260245ffd5b9052565b82815260408101610bdd602083018461142b565b92835260208301919091526001600160f81b031916604082015260600190565b8481526001600160a01b03841660208201526080604082018190525f906114a8908301856111eb565b905061079c606083018461142b565b5f602082840312156114c7575f5ffd5b81518015158114610bdd575f5ffdfe9e7b61f58c47dc699ac88507c4f5bb9f121c03808c5676a8078fe583e46497019e7b61f58c47dc699ac88507c4f5bb9f121c03808c5676a8078fe583e4649700a2646970667358221220e5ab3ac4f1e92d02765379095d2a52058c5562e247286f76a722116cba17bcef64736f6c634300081b0033",
  "devdoc": {
    "author": "Zentity",
    "custom:category": "token",
    "custom:concept": "FHE.select() for branch-free compliant transfers",
    "custom:difficulty": "advanced This contract implements a compliant token with encrypted balances. Transfers only succeed if both parties pass compliance checks, but failures are handled silently (transfer of 0) to prevent information leakage. Key patterns demonstrated: 1. FHE.select() for branch-free conditional logic 2. Combining multiple encrypted conditions with FHE.and() 3. Encrypted balance management 4. No-revert compliance (privacy-preserving failure handling) 5. Integration with external compliance checker",
    "details": "Part of zentity-fhevm-contracts - Builder Track",
    "events": {
      "Approval(address,address)": {
        "params": {
          "owner": "Address of the token owner",
          "spender": "Address authorized to spend"
        }
      },
      "ComplianceCheckerUpdated(address)": {
        "params": {
          "newChecker": "Address of the new compliance checker"
        }
      },
      "Mint(address,uint256)": {
        "params": {
          "amount": "Number of tokens minted",
          "to": "Address receiving the minted tokens"
        }
      },
      "OwnershipTransferStarted(address,address)": {
        "params": {
          "currentOwner": "Current owner address",
          "pendingOwner": "Address that can accept ownership"
        }
      },
      "OwnershipTransferred(address,address)": {
        "params": {
          "newOwner": "New owner address",
          "previousOwner": "Previous owner address"
        }
      },
      "Transfer(address,address)": {
        "params": {
          "from": "Address tokens are transferred from",
          "to": "Address tokens are transferred to"
        }
      }
    },
    "kind": "dev",
    "methods": {
      "allowance(address,address)": {
        "params": {
          "account": "Owner address",
          "spender": "Spender address"
        },
        "returns": {
          "_0": "Encrypted allowance"
        }
      },
      "approve(address,bytes32,bytes)": {
        "params": {
          "encryptedAmount": "Encrypted allowance amount",
          "inputProof": "Proof for encrypted input",
          "spender": "Address to approve"
        },
        "returns": {
          "success": "Always true"
        }
      },
      "balanceOf(address)": {
        "params": {
          "account": "Address to query"
        },
        "returns": {
          "_0": "Encrypted balance"
        }
      },
      "constructor": {
        "params": {
          "checker": "Address of the compliance checker contract",
          "tokenName": "Token name",
          "tokenSymbol": "Token symbol"
        }
      },
      "decimals()": {
        "returns": {
          "_0": "Token decimals"
        }
      },
      "mint(address,uint256)": {
        "details": "Only owner can mint. Compliance is NOT checked on mint.",
        "params": {
          "amount": "Amount to mint (plaintext)",
          "to": "Recipient address"
        }
      },
      "setComplianceChecker(address)": {
        "params": {
          "checker": "Address of the compliance checker"
        }
      },
      "transfer(address,bytes32)": {
        "params": {
          "amount": "Encrypted amount",
          "to": "Recipient"
        },
        "returns": {
          "success": "Always true"
        }
      },
      "transfer(address,bytes32,bytes)": {
        "details": "Branch-free transfer with compliance checks",
        "params": {
          "encryptedAmount": "Encrypted amount to transfer",
          "inputProof": "Proof for encrypted input",
          "to": "Recipient address"
        },
        "returns": {
          "success": "Always returns true (actual transfer amount may be 0) Key insight: We never revert on failed compliance. Instead: - If compliant: transfer the requested amount - If not compliant: transfer 0 (no state change, no info leak)"
        }
      },
      "transferFrom(address,address,bytes32,bytes)": {
        "params": {
          "encryptedAmount": "Encrypted amount",
          "from": "Source address",
          "inputProof": "Proof for encrypted input",
          "to": "Destination address"
        },
        "returns": {
          "success": "Always true"
        }
      },
      "transferOwnership(address)": {
        "params": {
          "newOwner": "Address that can accept ownership"
        }
      }
    },
    "title": "CompliantERC20",
    "version": 1
  },
  "userdoc": {
    "errors": {
      "ComplianceCheckerNotSet()": [
        {
          "notice": "Thrown when compliance checker is required but not set"
        }
      ],
      "InvalidOwner()": [
        {
          "notice": "Thrown when new owner is the zero address"
        }
      ],
      "OnlyOwner()": [
        {
          "notice": "Thrown when caller is not the contract owner"
        }
      ],
      "OnlyPendingOwner()": [
        {
          "notice": "Thrown when caller is not the pending owner"
        }
      ],
      "TotalSupplyOverflow()": [
        {
          "notice": "Thrown when mint amount would exceed uint64 accounting bounds"
        }
      ],
      "UnauthorizedCiphertext()": [
        {
          "notice": "Thrown when caller supplies an unauthorized ciphertext handle"
        }
      ],
      "ZamaProtocolUnsupported()": [
        {
          "notice": "Returned if the Zama protocol is not supported on the current chain"
        }
      ]
    },
    "events": {
      "Approval(address,address)": {
        "notice": "Emitted when spending allowance is set"
      },
      "ComplianceCheckerUpdated(address)": {
        "notice": "Emitted when the compliance checker contract is updated"
      },
      "Mint(address,uint256)": {
        "notice": "Emitted when new tokens are minted"
      },
      "OwnershipTransferStarted(address,address)": {
        "notice": "Emitted when ownership transfer is initiated"
      },
      "OwnershipTransferred(address,address)": {
        "notice": "Emitted when ownership transfer is completed"
      },
      "Transfer(address,address)": {
        "notice": "Emitted on token transfers (indexed for efficient filtering)"
      }
    },
    "kind": "user",
    "methods": {
      "DECIMALS()": {
        "notice": "Token decimals"
      },
      "acceptOwnership()": {
        "notice": "Accept ownership transfer"
      },
      "allowance(address,address)": {
        "notice": "Get encrypted allowance"
      },
      "approve(address,bytes32,bytes)": {
        "notice": "Approve spender to transfer tokens"
      },
      "balanceOf(address)": {
        "notice": "Get encrypted balance"
      },
      "complianceChecker()": {
        "notice": "Compliance checker interface (can be ComplianceRules or custom)"
      },
      "constructor": {
        "notice": "Initialize the token"
      },
      "decimals()": {
        "notice": "Get decimals"
      },
      "mint(address,uint256)": {
        "notice": "Mint tokens to an address"
      },
      "name()": {
        "notice": "Token name"
      },
      "owner()": {
        "notice": "Owner/admin"
      },
      "pendingOwner()": {
        "notice": "Pending owner for two-step ownership transfer"
      },
      "setComplianceChecker(address)": {
        "notice": "Set the compliance checker contract"
      },
      "symbol()": {
        "notice": "Token symbol"
      },
      "totalSupply()": {
        "notice": "Total supply (public for transparency)"
      },
      "transfer(address,bytes32)": {
        "notice": "Transfer with euint64 amount (for approved callers)"
      },
      "transfer(address,bytes32,bytes)": {
        "notice": "Transfer tokens with encrypted amount"
      },
      "transferFrom(address,address,bytes32,bytes)": {
        "notice": "Transfer from another account (requires approval)"
      },
      "transferOwnership(address)": {
        "notice": "Initiate transfer of contract ownership"
      }
    },
    "notice": "ERC20-like token with encrypted balances and compliance checks",
    "version": 1
  },
  "storageLayout": {
    "storage": [
      {
        "astId": 40948,
        "contract": "contracts/tokens/CompliantERC20.sol:CompliantERC20",
        "label": "name",
        "offset": 0,
        "slot": "0",
        "type": "t_string_storage"
      },
      {
        "astId": 40951,
        "contract": "contracts/tokens/CompliantERC20.sol:CompliantERC20",
        "label": "symbol",
        "offset": 0,
        "slot": "1",
        "type": "t_string_storage"
      },
      {
        "astId": 40958,
        "contract": "contracts/tokens/CompliantERC20.sol:CompliantERC20",
        "label": "totalSupply",
        "offset": 0,
        "slot": "2",
        "type": "t_uint256"
      },
      {
        "astId": 40964,
        "contract": "contracts/tokens/CompliantERC20.sol:CompliantERC20",
        "label": "balances",
        "offset": 0,
        "slot": "3",
        "type": "t_mapping(t_address,t_userDefinedValueType(euint64)41728)"
      },
      {
        "astId": 40972,
        "contract": "contracts/tokens/CompliantERC20.sol:CompliantERC20",
        "label": "allowances",
        "offset": 0,
        "slot": "4",
        "type": "t_mapping(t_address,t_mapping(t_address,t_userDefinedValueType(euint64)41728))"
      },
      {
        "astId": 40976,
        "contract": "contracts/tokens/CompliantERC20.sol:CompliantERC20",
        "label": "complianceChecker",
        "offset": 0,
        "slot": "5",
        "type": "t_contract(IComplianceChecker)41708"
      },
      {
        "astId": 40979,
        "contract": "contracts/tokens/CompliantERC20.sol:CompliantERC20",
        "label": "owner",
        "offset": 0,
        "slot": "6",
        "type": "t_address"
      },
      {
        "astId": 40982,
        "contract": "contracts/tokens/CompliantERC20.sol:CompliantERC20",
        "label": "pendingOwner",
        "offset": 0,
        "slot": "7",
        "type": "t_address"
      }
    ],
    "types": {
      "t_address": {
        "encoding": "inplace",
        "label": "address",
        "numberOfBytes": "20"
      },
      "t_contract(IComplianceChecker)41708": {
        "encoding": "inplace",
        "label": "contract IComplianceChecker",
        "numberOfBytes": "20"
      },
      "t_mapping(t_address,t_mapping(t_address,t_userDefinedValueType(euint64)41728))": {
        "encoding": "mapping",
        "key": "t_address",
        "label": "mapping(address => mapping(address => euint64))",
        "numberOfBytes": "32",
        "value": "t_mapping(t_address,t_userDefinedValueType(euint64)41728)"
      },
      "t_mapping(t_address,t_userDefinedValueType(euint64)41728)": {
        "encoding": "mapping",
        "key": "t_address",
        "label": "mapping(address => euint64)",
        "numberOfBytes": "32",
        "value": "t_userDefinedValueType(euint64)41728"
      },
      "t_string_storage": {
        "encoding": "bytes",
        "label": "string",
        "numberOfBytes": "32"
      },
      "t_uint256": {
        "encoding": "inplace",
        "label": "uint256",
        "numberOfBytes": "32"
      },
      "t_userDefinedValueType(euint64)41728": {
        "encoding": "inplace",
        "label": "euint64",
        "numberOfBytes": "32"
      }
    }
  }
}