{
  "address": "0x863e7181546cfBe7FcE9a24979E54975a777636A",
  "abi": [
    {
      "inputs": [],
      "stateMutability": "nonpayable",
      "type": "constructor"
    },
    {
      "inputs": [],
      "name": "AccessProhibited",
      "type": "error"
    },
    {
      "inputs": [],
      "name": "AlreadyAttested",
      "type": "error"
    },
    {
      "inputs": [],
      "name": "InvalidOwner",
      "type": "error"
    },
    {
      "inputs": [],
      "name": "NotAttested",
      "type": "error"
    },
    {
      "inputs": [],
      "name": "OnlyOwner",
      "type": "error"
    },
    {
      "inputs": [],
      "name": "OnlyPendingOwner",
      "type": "error"
    },
    {
      "inputs": [],
      "name": "OnlyRegistrar",
      "type": "error"
    },
    {
      "inputs": [],
      "name": "ZamaProtocolUnsupported",
      "type": "error"
    },
    {
      "anonymous": false,
      "inputs": [
        {
          "indexed": true,
          "internalType": "address",
          "name": "user",
          "type": "address"
        },
        {
          "indexed": true,
          "internalType": "address",
          "name": "grantee",
          "type": "address"
        }
      ],
      "name": "AccessGranted",
      "type": "event"
    },
    {
      "anonymous": false,
      "inputs": [
        {
          "indexed": true,
          "internalType": "address",
          "name": "user",
          "type": "address"
        },
        {
          "indexed": true,
          "internalType": "address",
          "name": "registrar",
          "type": "address"
        }
      ],
      "name": "IdentityAttested",
      "type": "event"
    },
    {
      "anonymous": false,
      "inputs": [
        {
          "indexed": true,
          "internalType": "address",
          "name": "user",
          "type": "address"
        },
        {
          "indexed": true,
          "internalType": "address",
          "name": "registrar",
          "type": "address"
        },
        {
          "indexed": true,
          "internalType": "uint256",
          "name": "attestationId",
          "type": "uint256"
        },
        {
          "indexed": false,
          "internalType": "uint256",
          "name": "timestamp",
          "type": "uint256"
        }
      ],
      "name": "IdentityAttestedDetailed",
      "type": "event"
    },
    {
      "anonymous": false,
      "inputs": [
        {
          "indexed": true,
          "internalType": "address",
          "name": "user",
          "type": "address"
        }
      ],
      "name": "IdentityRevoked",
      "type": "event"
    },
    {
      "anonymous": false,
      "inputs": [
        {
          "indexed": true,
          "internalType": "address",
          "name": "user",
          "type": "address"
        },
        {
          "indexed": true,
          "internalType": "address",
          "name": "registrar",
          "type": "address"
        },
        {
          "indexed": true,
          "internalType": "uint256",
          "name": "attestationId",
          "type": "uint256"
        },
        {
          "indexed": false,
          "internalType": "uint256",
          "name": "timestamp",
          "type": "uint256"
        }
      ],
      "name": "IdentityRevokedDetailed",
      "type": "event"
    },
    {
      "anonymous": false,
      "inputs": [
        {
          "indexed": true,
          "internalType": "address",
          "name": "currentOwner",
          "type": "address"
        },
        {
          "indexed": true,
          "internalType": "address",
          "name": "pendingOwner",
          "type": "address"
        }
      ],
      "name": "OwnershipTransferStarted",
      "type": "event"
    },
    {
      "anonymous": false,
      "inputs": [
        {
          "indexed": true,
          "internalType": "address",
          "name": "previousOwner",
          "type": "address"
        },
        {
          "indexed": true,
          "internalType": "address",
          "name": "newOwner",
          "type": "address"
        }
      ],
      "name": "OwnershipTransferred",
      "type": "event"
    },
    {
      "anonymous": false,
      "inputs": [
        {
          "indexed": true,
          "internalType": "address",
          "name": "registrar",
          "type": "address"
        }
      ],
      "name": "RegistrarAdded",
      "type": "event"
    },
    {
      "anonymous": false,
      "inputs": [
        {
          "indexed": true,
          "internalType": "address",
          "name": "registrar",
          "type": "address"
        }
      ],
      "name": "RegistrarRemoved",
      "type": "event"
    },
    {
      "inputs": [],
      "name": "acceptOwnership",
      "outputs": [],
      "stateMutability": "nonpayable",
      "type": "function"
    },
    {
      "inputs": [
        {
          "internalType": "address",
          "name": "registrar",
          "type": "address"
        }
      ],
      "name": "addRegistrar",
      "outputs": [],
      "stateMutability": "nonpayable",
      "type": "function"
    },
    {
      "inputs": [
        {
          "internalType": "address",
          "name": "user",
          "type": "address"
        },
        {
          "internalType": "externalEuint8",
          "name": "encBirthYearOffset",
          "type": "bytes32"
        },
        {
          "internalType": "externalEuint16",
          "name": "encCountryCode",
          "type": "bytes32"
        },
        {
          "internalType": "externalEuint8",
          "name": "encKycLevel",
          "type": "bytes32"
        },
        {
          "internalType": "externalEbool",
          "name": "encIsBlacklisted",
          "type": "bytes32"
        },
        {
          "internalType": "bytes",
          "name": "inputProof",
          "type": "bytes"
        }
      ],
      "name": "attestIdentity",
      "outputs": [],
      "stateMutability": "nonpayable",
      "type": "function"
    },
    {
      "inputs": [
        {
          "internalType": "address",
          "name": "user",
          "type": "address"
        }
      ],
      "name": "attestationTimestamp",
      "outputs": [
        {
          "internalType": "uint256",
          "name": "timestamp",
          "type": "uint256"
        }
      ],
      "stateMutability": "view",
      "type": "function"
    },
    {
      "inputs": [],
      "name": "confidentialProtocolId",
      "outputs": [
        {
          "internalType": "uint256",
          "name": "",
          "type": "uint256"
        }
      ],
      "stateMutability": "view",
      "type": "function"
    },
    {
      "inputs": [
        {
          "internalType": "address",
          "name": "user",
          "type": "address"
        }
      ],
      "name": "currentAttestationId",
      "outputs": [
        {
          "internalType": "uint256",
          "name": "attestationId",
          "type": "uint256"
        }
      ],
      "stateMutability": "view",
      "type": "function"
    },
    {
      "inputs": [
        {
          "internalType": "address",
          "name": "user",
          "type": "address"
        },
        {
          "internalType": "uint256",
          "name": "attestationId",
          "type": "uint256"
        }
      ],
      "name": "getAttestationMetadata",
      "outputs": [
        {
          "internalType": "uint256",
          "name": "timestamp",
          "type": "uint256"
        },
        {
          "internalType": "uint256",
          "name": "revokedAt",
          "type": "uint256"
        },
        {
          "internalType": "address",
          "name": "registrar",
          "type": "address"
        }
      ],
      "stateMutability": "view",
      "type": "function"
    },
    {
      "inputs": [
        {
          "internalType": "address",
          "name": "user",
          "type": "address"
        }
      ],
      "name": "getBirthYearOffset",
      "outputs": [
        {
          "internalType": "euint8",
          "name": "",
          "type": "bytes32"
        }
      ],
      "stateMutability": "view",
      "type": "function"
    },
    {
      "inputs": [
        {
          "internalType": "address",
          "name": "user",
          "type": "address"
        }
      ],
      "name": "getBlacklistResult",
      "outputs": [
        {
          "internalType": "ebool",
          "name": "",
          "type": "bytes32"
        }
      ],
      "stateMutability": "view",
      "type": "function"
    },
    {
      "inputs": [
        {
          "internalType": "address",
          "name": "user",
          "type": "address"
        }
      ],
      "name": "getBlacklistStatus",
      "outputs": [
        {
          "internalType": "ebool",
          "name": "",
          "type": "bytes32"
        }
      ],
      "stateMutability": "view",
      "type": "function"
    },
    {
      "inputs": [
        {
          "internalType": "address",
          "name": "user",
          "type": "address"
        }
      ],
      "name": "getCountryCode",
      "outputs": [
        {
          "internalType": "euint16",
          "name": "",
          "type": "bytes32"
        }
      ],
      "stateMutability": "view",
      "type": "function"
    },
    {
      "inputs": [
        {
          "internalType": "address",
          "name": "user",
          "type": "address"
        },
        {
          "internalType": "uint16",
          "name": "country",
          "type": "uint16"
        }
      ],
      "name": "getCountryResult",
      "outputs": [
        {
          "internalType": "ebool",
          "name": "",
          "type": "bytes32"
        }
      ],
      "stateMutability": "view",
      "type": "function"
    },
    {
      "inputs": [
        {
          "internalType": "address",
          "name": "user",
          "type": "address"
        }
      ],
      "name": "getKycLevel",
      "outputs": [
        {
          "internalType": "euint8",
          "name": "",
          "type": "bytes32"
        }
      ],
      "stateMutability": "view",
      "type": "function"
    },
    {
      "inputs": [
        {
          "internalType": "address",
          "name": "user",
          "type": "address"
        },
        {
          "internalType": "uint8",
          "name": "minLevel",
          "type": "uint8"
        }
      ],
      "name": "getKycLevelResult",
      "outputs": [
        {
          "internalType": "ebool",
          "name": "",
          "type": "bytes32"
        }
      ],
      "stateMutability": "view",
      "type": "function"
    },
    {
      "inputs": [
        {
          "internalType": "address",
          "name": "grantee",
          "type": "address"
        }
      ],
      "name": "grantAccessTo",
      "outputs": [],
      "stateMutability": "nonpayable",
      "type": "function"
    },
    {
      "inputs": [
        {
          "internalType": "address",
          "name": "user",
          "type": "address"
        },
        {
          "internalType": "uint8",
          "name": "minLevel",
          "type": "uint8"
        }
      ],
      "name": "hasMinKycLevel",
      "outputs": [
        {
          "internalType": "ebool",
          "name": "",
          "type": "bytes32"
        }
      ],
      "stateMutability": "nonpayable",
      "type": "function"
    },
    {
      "inputs": [
        {
          "internalType": "address",
          "name": "user",
          "type": "address"
        }
      ],
      "name": "isAttested",
      "outputs": [
        {
          "internalType": "bool",
          "name": "",
          "type": "bool"
        }
      ],
      "stateMutability": "view",
      "type": "function"
    },
    {
      "inputs": [
        {
          "internalType": "address",
          "name": "user",
          "type": "address"
        },
        {
          "internalType": "uint16",
          "name": "country",
          "type": "uint16"
        }
      ],
      "name": "isFromCountry",
      "outputs": [
        {
          "internalType": "ebool",
          "name": "",
          "type": "bytes32"
        }
      ],
      "stateMutability": "nonpayable",
      "type": "function"
    },
    {
      "inputs": [
        {
          "internalType": "address",
          "name": "user",
          "type": "address"
        }
      ],
      "name": "isNotBlacklisted",
      "outputs": [
        {
          "internalType": "ebool",
          "name": "",
          "type": "bytes32"
        }
      ],
      "stateMutability": "nonpayable",
      "type": "function"
    },
    {
      "inputs": [
        {
          "internalType": "address",
          "name": "user",
          "type": "address"
        }
      ],
      "name": "latestAttestationId",
      "outputs": [
        {
          "internalType": "uint256",
          "name": "attestationId",
          "type": "uint256"
        }
      ],
      "stateMutability": "view",
      "type": "function"
    },
    {
      "inputs": [],
      "name": "owner",
      "outputs": [
        {
          "internalType": "address",
          "name": "",
          "type": "address"
        }
      ],
      "stateMutability": "view",
      "type": "function"
    },
    {
      "inputs": [],
      "name": "pendingOwner",
      "outputs": [
        {
          "internalType": "address",
          "name": "",
          "type": "address"
        }
      ],
      "stateMutability": "view",
      "type": "function"
    },
    {
      "inputs": [
        {
          "internalType": "address",
          "name": "registrar",
          "type": "address"
        }
      ],
      "name": "registrars",
      "outputs": [
        {
          "internalType": "bool",
          "name": "authorized",
          "type": "bool"
        }
      ],
      "stateMutability": "view",
      "type": "function"
    },
    {
      "inputs": [
        {
          "internalType": "address",
          "name": "registrar",
          "type": "address"
        }
      ],
      "name": "removeRegistrar",
      "outputs": [],
      "stateMutability": "nonpayable",
      "type": "function"
    },
    {
      "inputs": [
        {
          "internalType": "address",
          "name": "user",
          "type": "address"
        }
      ],
      "name": "revokeIdentity",
      "outputs": [],
      "stateMutability": "nonpayable",
      "type": "function"
    },
    {
      "inputs": [
        {
          "internalType": "address",
          "name": "newOwner",
          "type": "address"
        }
      ],
      "name": "transferOwnership",
      "outputs": [],
      "stateMutability": "nonpayable",
      "type": "function"
    }
  ],
  "transactionHash": "0x822b8fd8e1bcc6ac5a95461d112050682a00d8afaa853835fa111874230adfd5",
  "args": [],
  "numDeployments": 1,
  "solcInputHash": "d569a852ccf6cd3324bac3d3c54f79db",
  "bytecode": "0x608060405234801561000f575f5ffd5b506100c461001b61011c565b80517f9e7b61f58c47dc699ac88507c4f5bb9f121c03808c5676a8078fe583e464970080546001600160a01b03199081166001600160a01b039384161790915560208301517f9e7b61f58c47dc699ac88507c4f5bb9f121c03808c5676a8078fe583e46497018054831691841691909117905560408301517f9e7b61f58c47dc699ac88507c4f5bb9f121c03808c5676a8078fe583e46497028054909216921691909117905550565b600980546001600160a01b031916339081179091555f818152600b6020526040808220805460ff19166001179055517f5c38ce8ff8864a9d2a5ff5aec72a88770e38d181dea59173fde1247cdaa1aea39190a261028b565b604080516060810182525f808252602082018190529181019190915246600103610175575060408051606080820183525f8083526020808401829052928401819052835191820184528082529181018290529182015290565b4662aa36a7036101f4575060408051606080820183525f8083526020808401829052928401528251908101835273f0ffdc93b7e186bc2f8cb3daa75d86d1930a433d81527392c920834ec8941d2c77d188936e1f7a6f49c1279181019190915273be0e383937d564d7ff0bc3b46c51f0bf8d5c311a9181019190915290565b46617a6903610272575060408051606080820183525f8083526020808401829052928401528251908101835273f0ffdc93b7e186bc2f8cb3daa75d86d1930a433d81527392c920834ec8941d2c77d188936e1f7a6f49c1279181019190915273be0e383937d564d7ff0bc3b46c51f0bf8d5c311a9181019190915290565b6040516373cac13b60e01b815260040160405180910390fd5b611a5c806102985f395ff3fe608060405234801561000f575f5ffd5b5060043610610187575f3560e01c80638cb83540116100d9578063b757ce0e11610093578063ceb247971161006e578063ceb24797146103f4578063e30c397814610407578063f2fde38b1461041a578063fdd2132b1461042d575f5ffd5b8063b757ce0e14610359578063ba904eed146103c2578063c736a433146103d5575f5ffd5b80638cb83540146102c35780638da5cb5b146102e257806391b497551461030d578063af92a69314610320578063b3ce9b3d14610333578063b745e8b114610346575f5ffd5b806358d2b4a5116101445780637d1c8e171161011f5780637d1c8e171461027357806381ba6ce2146102865780638927b0301461029957806389aeca76146102a1575f5ffd5b806358d2b4a51461023957806368746e751461024c57806379ba50971461026b575f5ffd5b80630ebddd171461018b578063190258ad146101a057806326a0e06c146101c65780632afc1eeb146101d95780633c23afba146101ec57806355ab78f514610226575b5f5ffd5b61019e61019936600461177e565b610440565b005b6101b36101ae36600461177e565b6105f7565b6040519081526020015b60405180910390f35b6101b36101d4366004611797565b610663565b6101b36101e7366004611797565b6106d4565b6102166101fa36600461177e565b6001600160a01b03165f90815260056020526040902054151590565b60405190151581526020016101bd565b61019e61023436600461177e565b6107d4565b6101b361024736600461177e565b6108a2565b6101b361025a36600461177e565b60066020525f908152604090205481565b61019e610932565b61019e6102813660046117d1565b6109b9565b6101b361029436600461177e565b610ce9565b6101b3610d79565b6102166102af36600461177e565b600b6020525f908152604090205460ff1681565b6101b36102d136600461177e565b60046020525f908152604090205481565b6009546102f5906001600160a01b031681565b6040516001600160a01b0390911681526020016101bd565b6101b361031b366004611875565b610d87565b61019e61032e36600461177e565b610e43565b6101b361034136600461177e565b610eb9565b6101b361035436600461177e565b610f49565b61039e6103673660046118a5565b6001600160a01b039182165f9081526007602090815260408083209383529290522080546001820154600290920154909391921690565b6040805193845260208401929092526001600160a01b0316908201526060016101bd565b61019e6103d036600461177e565b61103d565b6101b36103e336600461177e565b60056020525f908152604090205481565b6101b361040236600461177e565b6110b0565b600a546102f5906001600160a01b031681565b61019e61042836600461177e565b611140565b6101b361043b366004611875565b6111e3565b335f908152600b602052604090205460ff1661046f57604051632fed761f60e01b815260040160405180910390fd5b6001600160a01b0381165f90815260056020526040812054908190036104a85760405163099efb8960e41b815260040160405180910390fd5b6104b15f6111ff565b6001600160a01b0383165f908152602081905260408120919091556104d59061120e565b6001600160a01b0383165f908152600160205260408120919091556104f9906111ff565b6001600160a01b0383165f9081526002602052604081209190915561051d9061121e565b6001600160a01b0383165f9081526003602090815260408083209390935560048152828220829055600581528282208290556007815282822084835290529081206001810154909103610571574260018201555b6040516001600160a01b038416907fccf550e579fbeb7d56da9a0175f8d4526535cab139e73b592516f1916d4075dd905f90a281336001600160a01b0316846001600160a01b03167f3d6883511c0cbeaa2a0e9df1b5c9ec5b0b3af47e1ddb09e4582c62e935ac1bd3426040516105ea91815260200190565b60405180910390a4505050565b5f5f8260025f60405160200161060f939291906118cd565b60408051601f1981840301815291815281516020928301205f818152600890935291205490915061063f81611239565b61065c57604051631a6bd1fd60e01b815260040160405180910390fd5b9392505050565b5f5f835f8460ff1660405160200161067d939291906118cd565b60408051601f1981840301815291815281516020928301205f81815260089093529120549091506106ad81611239565b6106ca57604051631a6bd1fd60e01b815260040160405180910390fd5b9150505b92915050565b6001600160a01b0382165f90815260046020526040812054810361070b5760405163099efb8960e41b815260040160405180910390fd5b6001600160a01b0383165f9081526002602052604090205461072c90611239565b61074957604051631a6bd1fd60e01b815260040160405180910390fd5b6001600160a01b0383165f908152600260205260408120546107739061076e856111ff565b611244565b90505f845f8560ff1660405160200161078e939291906118cd565b60408051601f1981840301815291815281516020928301205f8181526008909352912083905590506107bf82611272565b506107ca8233611281565b5090949350505050565b335f9081526004602052604081205490036108025760405163099efb8960e41b815260040160405180910390fd5b335f9081526020819052604090205461081b9082611281565b50335f908152600160205260409020546108359082611281565b50335f9081526002602052604090205461084f9082611281565b50335f908152600360205260409020546108699082611281565b506040516001600160a01b0382169033907f9f520b3bfc56d06f7065d10b4683b3f57ac8895d5026cd176dee95ce1454cb8d905f90a350565b6001600160a01b0381165f9081526004602052604081205481036108d95760405163099efb8960e41b815260040160405180910390fd5b6001600160a01b0382165f908152600360205260409020546108fa90611239565b61091757604051631a6bd1fd60e01b815260040160405180910390fd5b506001600160a01b03165f9081526003602052604090205490565b600a546001600160a01b0316331461095d576040516303c25d1960e61b815260040160405180910390fd5b60098054600a80546001600160a01b03198084166001600160a01b038381169182179096559116909155604051929091169182907f8be0079c531659141344cd1fd0a4f28419497f9722a3daafe3b4186f6b6457e0905f90a350565b335f908152600b602052604090205460ff166109e857604051632fed761f60e01b815260040160405180910390fd5b6001600160a01b0387165f9081526005602052604090205415610a1e576040516335d9080560e01b815260040160405180910390fd5b5f610a5e8784848080601f0160208091040260200160405190810160405280939291908181526020018383808284375f9201919091525061129392505050565b90505f610aa08785858080601f0160208091040260200160405190810160405280939291908181526020018383808284375f920191909152506112a092505050565b90505f610ae28786868080601f0160208091040260200160405190810160405280939291908181526020018383808284375f9201919091525061129392505050565b90505f610b248787878080601f0160208091040260200160405190810160405280939291908181526020018383808284375f920191909152506112ad92505050565b6001600160a01b038c165f908152602081815260408083208890556001825280832087905560028252808320869055600390915290208190559050610b6884611272565b50610b7283611272565b50610b7c82611272565b50610b8681611272565b50610b91848c611281565b50610b9c838c611281565b50610ba7828c611281565b50610bb2818c611281565b506001600160a01b038b165f90815260066020526040812054610bd6906001611904565b6001600160a01b038d81165f8181526006602090815260408083208690556005825280832086905580516060810182524280825281840185815233838501818152888852600787528588208b8952875285882094518555915160018501559051600290930180546001600160a01b03191693909816929092179096558484526004909252808320949094559251939450919290917f80e69e903f208f7deaa7841fb5c747e52500a1dd84961857e29cd831bdd90c0b91a380336001600160a01b03168d6001600160a01b03167f3c29af9eea4975bcf019c02a4de64f71debe7fa82dc5974c28bc485fe4a7ba1d42604051610cd391815260200190565b60405180910390a4505050505050505050505050565b6001600160a01b0381165f908152600460205260408120548103610d205760405163099efb8960e41b815260040160405180910390fd5b6001600160a01b0382165f90815260016020526040902054610d4190611239565b610d5e57604051631a6bd1fd60e01b815260040160405180910390fd5b506001600160a01b03165f9081526001602052604090205490565b5f610d826112b9565b905090565b6001600160a01b0382165f908152600460205260408120548103610dbe5760405163099efb8960e41b815260040160405180910390fd5b6001600160a01b0383165f90815260016020526040902054610ddf90611239565b610dfc57604051631a6bd1fd60e01b815260040160405180910390fd5b6001600160a01b0383165f90815260016020526040812054610e2690610e218561120e565b6112ed565b90505f8460018561ffff1660405160200161078e939291906118cd565b6009546001600160a01b03163314610e6e57604051635fc483c560e01b815260040160405180910390fd5b6001600160a01b0381165f818152600b6020526040808220805460ff19166001179055517f5c38ce8ff8864a9d2a5ff5aec72a88770e38d181dea59173fde1247cdaa1aea39190a250565b6001600160a01b0381165f908152600460205260408120548103610ef05760405163099efb8960e41b815260040160405180910390fd5b6001600160a01b0382165f90815260208190526040902054610f1190611239565b610f2e57604051631a6bd1fd60e01b815260040160405180910390fd5b506001600160a01b03165f9081526020819052604090205490565b6001600160a01b0381165f908152600460205260408120548103610f805760405163099efb8960e41b815260040160405180910390fd5b6001600160a01b0382165f90815260036020526040902054610fa190611239565b610fbe57604051631a6bd1fd60e01b815260040160405180910390fd5b6001600160a01b0382165f90815260036020526040812054610fdf9061131b565b90505f8360025f604051602001610ff8939291906118cd565b60408051601f1981840301815291815281516020928301205f81815260089093529120839055905061102982611272565b506110348233611281565b50909392505050565b6009546001600160a01b0316331461106857604051635fc483c560e01b815260040160405180910390fd5b6001600160a01b0381165f818152600b6020526040808220805460ff19169055517f81cb97a294b3ff5f91ef4048b3173c7f8f6943d9750add2071199061165e5f579190a250565b6001600160a01b0381165f9081526004602052604081205481036110e75760405163099efb8960e41b815260040160405180910390fd5b6001600160a01b0382165f9081526002602052604090205461110890611239565b61112557604051631a6bd1fd60e01b815260040160405180910390fd5b506001600160a01b03165f9081526002602052604090205490565b6009546001600160a01b0316331461116b57604051635fc483c560e01b815260040160405180910390fd5b6001600160a01b038116611192576040516349e27cff60e01b815260040160405180910390fd5b600a80546001600160a01b0319166001600160a01b03838116918217909255600954604051919216907f38d16b8cac22d99fc7c124b9cd0de2d3fa1faef420bfe791d8c362d765e22700905f90a350565b5f5f8360018461ffff1660405160200161067d939291906118cd565b5f6106ce8260ff166002611325565b5f6106ce8261ffff166003611325565b5f6106ce8261122d575f611230565b60015b60ff165f611325565b5f6106ce82336113bc565b5f82611256576112535f6111ff565b92505b81611267576112645f6111ff565b91505b61065c83835f611440565b5f61127d82306114fd565b5090565b5f61128c83836114fd565b5090919050565b5f61065c83836002611573565b5f61065c83836003611573565b5f61065c83835f611573565b5f466001036112c85750600190565b4662aa36a7036112d9575061271190565b46617a69036112e857505f1990565b505f90565b5f826112ff576112fc5f61120e565b92505b816113105761130d5f61120e565b91505b61065c83835f61166d565b5f6106ce826116e4565b5f5160206119e75f395f51905f5254604051639cd07acb60e01b81525f915f516020611a075f395f51905f52916001600160a01b0390911690639cd07acb906113749087908790600401611943565b6020604051808303815f875af1158015611390573d5f5f3e3d5ffd5b505050506040513d601f19601f820116820180604052508101906113b49190611957565b949350505050565b5f805f516020611a075f395f51905f5280546040516382027b6d60e01b8152600481018790526001600160a01b0386811660248301529293509116906382027b6d90604401602060405180830381865afa15801561141c573d5f5f3e3d5ffd5b505050506040513d601f19601f820116820180604052508101906113b4919061196e565b5f5f82156114535750600160f81b611456565b505f5b5f5160206119e75f395f51905f5254604051631391547f60e01b815260048101879052602481018690526001600160f81b0319831660448201525f516020611a075f395f51905f52916001600160a01b031690631391547f906064015b6020604051808303815f875af11580156114cf573d5f5f3e3d5ffd5b505050506040513d601f19601f820116820180604052508101906114f39190611957565b9695505050505050565b5f5f516020611a075f395f51905f528054604051635ca4b5b160e11b8152600481018690526001600160a01b03858116602483015292935091169063b9496b62906044015f604051808303815f87803b158015611558575f5ffd5b505af115801561156a573d5f5f3e3d5ffd5b50505050505050565b5f5160206119e75f395f51905f525460405163045fc19560e11b81525f915f516020611a075f395f51905f52916001600160a01b03909116906308bf832a906115c690889033908990899060040161198d565b6020604051808303815f875af11580156115e2573d5f5f3e3d5ffd5b505050506040513d601f19601f820116820180604052508101906116069190611957565b8154604051630f8e573b60e21b8152600481018390523360248201529193506001600160a01b031690633e395cec906044015f604051808303815f87803b15801561164f575f5ffd5b505af1158015611661573d5f5f3e3d5ffd5b50505050509392505050565b5f5f82156116805750600160f81b611683565b505f5b5f5160206119e75f395f51905f525460405163f77f3f1d60e01b815260048101879052602481018690526001600160f81b0319831660448201525f516020611a075f395f51905f52916001600160a01b03169063f77f3f1d906064016114b3565b5f805f516020611a075f395f51905f526001810154604051630f51ccfb60e41b8152600481018690529192506001600160a01b03169063f51ccfb0906024016020604051808303815f875af115801561173f573d5f5f3e3d5ffd5b505050506040513d601f19601f8201168201806040525081019061065c9190611957565b80356001600160a01b0381168114611779575f5ffd5b919050565b5f6020828403121561178e575f5ffd5b61065c82611763565b5f5f604083850312156117a8575f5ffd5b6117b183611763565b9150602083013560ff811681146117c6575f5ffd5b809150509250929050565b5f5f5f5f5f5f5f60c0888a0312156117e7575f5ffd5b6117f088611763565b96506020880135955060408801359450606088013593506080880135925060a088013567ffffffffffffffff811115611827575f5ffd5b8801601f81018a13611837575f5ffd5b803567ffffffffffffffff81111561184d575f5ffd5b8a602082840101111561185e575f5ffd5b602082019350809250505092959891949750929550565b5f5f60408385031215611886575f5ffd5b61188f83611763565b9150602083013561ffff811681146117c6575f5ffd5b5f5f604083850312156118b6575f5ffd5b6118bf83611763565b946020939093013593505050565b60609390931b6bffffffffffffffffffffffff1916835260f89190911b6001600160f81b0319166014830152601582015260350190565b808201808211156106ce57634e487b7160e01b5f52601160045260245ffd5b6054811061193f57634e487b7160e01b5f52602160045260245ffd5b9052565b8281526040810161065c6020830184611923565b5f60208284031215611967575f5ffd5b5051919050565b5f6020828403121561197e575f5ffd5b8151801515811461065c575f5ffd5b84815260018060a01b0384166020820152608060408201525f8351806080840152806020860160a085015e5f60a0828501015260a0601f19601f8301168401019150506119dd6060830184611923565b9594505050505056fe9e7b61f58c47dc699ac88507c4f5bb9f121c03808c5676a8078fe583e46497019e7b61f58c47dc699ac88507c4f5bb9f121c03808c5676a8078fe583e4649700a26469706673582212200deec255325180d7e0740f2ea44872252d7c0e1bcf046c950cb8810f19e5e52e64736f6c634300081b0033",
  "devdoc": {
    "author": "Gustavo Valverde",
    "custom:category": "identity",
    "custom:concept": "Storing encrypted identity attributes (euint8, euint16, ebool)",
    "custom:difficulty": "intermediate This contract maintains an encrypted identity registry where authorized registrars (typically a backend service) can attest to user identity attributes. All sensitive data remains encrypted on-chain. Key patterns demonstrated: 1. Multiple encrypted types (euint8, euint16, ebool) 2. Role-based access control (registrars) 3. Struct-like data storage with mappings 4. FHE permission management (allowThis, allow)",
    "details": "Part of zentity-fhevm-contracts - Builder Track",
    "events": {
      "AccessGranted(address,address)": {
        "params": {
          "grantee": "Address receiving access permission",
          "user": "Address of the user granting access"
        }
      },
      "IdentityAttested(address,address)": {
        "params": {
          "registrar": "Address of the registrar who performed attestation",
          "user": "Address of the attested user"
        }
      },
      "IdentityAttestedDetailed(address,address,uint256,uint256)": {
        "params": {
          "attestationId": "Monotonic attestation identifier for the user",
          "registrar": "Address of the registrar who performed attestation",
          "timestamp": "Unix timestamp of attestation",
          "user": "Address of the attested user"
        }
      },
      "IdentityRevoked(address)": {
        "params": {
          "user": "Address whose attestation was revoked"
        }
      },
      "IdentityRevokedDetailed(address,address,uint256,uint256)": {
        "params": {
          "attestationId": "Attestation identifier that was revoked",
          "registrar": "Address of the registrar who performed the revocation",
          "timestamp": "Unix timestamp of revocation",
          "user": "Address whose attestation was revoked"
        }
      },
      "OwnershipTransferStarted(address,address)": {
        "params": {
          "currentOwner": "Current owner address",
          "pendingOwner": "Address that can accept ownership"
        }
      },
      "OwnershipTransferred(address,address)": {
        "params": {
          "newOwner": "New owner address",
          "previousOwner": "Previous owner address"
        }
      },
      "RegistrarAdded(address)": {
        "params": {
          "registrar": "Address of the authorized registrar"
        }
      },
      "RegistrarRemoved(address)": {
        "params": {
          "registrar": "Address of the removed registrar"
        }
      }
    },
    "kind": "dev",
    "methods": {
      "addRegistrar(address)": {
        "params": {
          "registrar": "Address to authorize as registrar"
        }
      },
      "attestIdentity(address,bytes32,bytes32,bytes32,bytes32,bytes)": {
        "params": {
          "encBirthYearOffset": "Encrypted birth year offset (years since 1900)",
          "encCountryCode": "Encrypted ISO 3166-1 numeric country code",
          "encIsBlacklisted": "Encrypted blacklist status",
          "encKycLevel": "Encrypted KYC verification level (0-3)",
          "inputProof": "FHE proof for encrypted inputs",
          "user": "Address of the user being attested"
        }
      },
      "getAttestationMetadata(address,uint256)": {
        "params": {
          "attestationId": "Attestation identifier to query",
          "user": "Address of the user"
        },
        "returns": {
          "registrar": "Registrar who performed the attestation",
          "revokedAt": "Unix timestamp of revocation (0 if not revoked)",
          "timestamp": "Unix timestamp of attestation"
        }
      },
      "getBirthYearOffset(address)": {
        "params": {
          "user": "Address of the user"
        },
        "returns": {
          "_0": "Encrypted birth year offset (years since 1900)"
        }
      },
      "getBlacklistResult(address)": {
        "params": {
          "user": "Address that was checked"
        },
        "returns": {
          "_0": "Encrypted boolean result"
        }
      },
      "getBlacklistStatus(address)": {
        "params": {
          "user": "Address of the user"
        },
        "returns": {
          "_0": "Encrypted blacklist status (true if blacklisted)"
        }
      },
      "getCountryCode(address)": {
        "params": {
          "user": "Address of the user"
        },
        "returns": {
          "_0": "Encrypted ISO 3166-1 numeric country code"
        }
      },
      "getCountryResult(address,uint16)": {
        "params": {
          "country": "Country code that was checked",
          "user": "Address that was checked"
        },
        "returns": {
          "_0": "Encrypted boolean result"
        }
      },
      "getKycLevel(address)": {
        "params": {
          "user": "Address of the user"
        },
        "returns": {
          "_0": "Encrypted KYC verification level (0-3)"
        }
      },
      "getKycLevelResult(address,uint8)": {
        "params": {
          "minLevel": "Level that was checked",
          "user": "Address that was checked"
        },
        "returns": {
          "_0": "Encrypted boolean result"
        }
      },
      "grantAccessTo(address)": {
        "params": {
          "grantee": "Address to grant access to"
        }
      },
      "hasMinKycLevel(address,uint8)": {
        "params": {
          "minLevel": "Minimum KYC level required",
          "user": "Address of the user"
        },
        "returns": {
          "_0": "Encrypted boolean result of comparison"
        }
      },
      "isAttested(address)": {
        "params": {
          "user": "Address of the user"
        },
        "returns": {
          "_0": "True if user has valid attestation"
        }
      },
      "isFromCountry(address,uint16)": {
        "params": {
          "country": "ISO 3166-1 numeric country code to check",
          "user": "Address of the user"
        },
        "returns": {
          "_0": "Encrypted boolean result of comparison"
        }
      },
      "isNotBlacklisted(address)": {
        "params": {
          "user": "Address of the user"
        },
        "returns": {
          "_0": "Encrypted boolean (true if NOT blacklisted)"
        }
      },
      "removeRegistrar(address)": {
        "params": {
          "registrar": "Address to remove from registrars"
        }
      },
      "revokeIdentity(address)": {
        "params": {
          "user": "Address of the user to revoke"
        }
      },
      "transferOwnership(address)": {
        "params": {
          "newOwner": "Address that can accept ownership"
        }
      }
    },
    "title": "IdentityRegistry",
    "version": 1
  },
  "userdoc": {
    "errors": {
      "AccessProhibited()": [
        {
          "notice": "Thrown when caller lacks permission for encrypted data"
        }
      ],
      "AlreadyAttested()": [
        {
          "notice": "Thrown when attempting to attest an already-attested user"
        }
      ],
      "InvalidOwner()": [
        {
          "notice": "Thrown when new owner is the zero address"
        }
      ],
      "NotAttested()": [
        {
          "notice": "Thrown when querying a user without attestation"
        }
      ],
      "OnlyOwner()": [
        {
          "notice": "Thrown when caller is not the contract owner"
        }
      ],
      "OnlyPendingOwner()": [
        {
          "notice": "Thrown when caller is not the pending owner"
        }
      ],
      "OnlyRegistrar()": [
        {
          "notice": "Thrown when caller is not an authorized registrar"
        }
      ],
      "ZamaProtocolUnsupported()": [
        {
          "notice": "Returned if the Zama protocol is not supported on the current chain"
        }
      ]
    },
    "events": {
      "AccessGranted(address,address)": {
        "notice": "Emitted when a user grants access to their encrypted data"
      },
      "IdentityAttested(address,address)": {
        "notice": "Emitted when an identity is attested on-chain"
      },
      "IdentityAttestedDetailed(address,address,uint256,uint256)": {
        "notice": "Emitted when an identity is attested on-chain with metadata"
      },
      "IdentityRevoked(address)": {
        "notice": "Emitted when an identity attestation is revoked"
      },
      "IdentityRevokedDetailed(address,address,uint256,uint256)": {
        "notice": "Emitted when an identity attestation is revoked with metadata"
      },
      "OwnershipTransferStarted(address,address)": {
        "notice": "Emitted when ownership transfer is initiated"
      },
      "OwnershipTransferred(address,address)": {
        "notice": "Emitted when ownership transfer is completed"
      },
      "RegistrarAdded(address)": {
        "notice": "Emitted when a new registrar is authorized"
      },
      "RegistrarRemoved(address)": {
        "notice": "Emitted when a registrar's authorization is revoked"
      }
    },
    "kind": "user",
    "methods": {
      "acceptOwnership()": {
        "notice": "Accept ownership transfer"
      },
      "addRegistrar(address)": {
        "notice": "Add a new authorized registrar"
      },
      "attestIdentity(address,bytes32,bytes32,bytes32,bytes32,bytes)": {
        "notice": "Attest a user's encrypted identity data on-chain"
      },
      "attestationTimestamp(address)": {
        "notice": "Timestamp of last attestation"
      },
      "constructor": {
        "notice": "Initializes the registry with the deployer as owner and initial registrar"
      },
      "currentAttestationId(address)": {
        "notice": "Current attestation id for a user (0 if not attested)"
      },
      "getAttestationMetadata(address,uint256)": {
        "notice": "Get attestation metadata for a user and attestation id"
      },
      "getBirthYearOffset(address)": {
        "notice": "Get user's encrypted birth year offset"
      },
      "getBlacklistResult(address)": {
        "notice": "Get the last blacklist verification result"
      },
      "getBlacklistStatus(address)": {
        "notice": "Get user's encrypted blacklist status"
      },
      "getCountryCode(address)": {
        "notice": "Get user's encrypted country code"
      },
      "getCountryResult(address,uint16)": {
        "notice": "Get the last country verification result"
      },
      "getKycLevel(address)": {
        "notice": "Get user's encrypted KYC level"
      },
      "getKycLevelResult(address,uint8)": {
        "notice": "Get the last KYC level verification result"
      },
      "grantAccessTo(address)": {
        "notice": "Grant a contract access to caller's encrypted identity data"
      },
      "hasMinKycLevel(address,uint8)": {
        "notice": "Check if user has minimum KYC level (encrypted comparison)"
      },
      "isAttested(address)": {
        "notice": "Check if a user has been attested"
      },
      "isFromCountry(address,uint16)": {
        "notice": "Check if user is from a specific country (encrypted comparison)"
      },
      "isNotBlacklisted(address)": {
        "notice": "Check if user is not blacklisted (encrypted)"
      },
      "latestAttestationId(address)": {
        "notice": "Latest attestation id ever issued for a user"
      },
      "owner()": {
        "notice": "Owner of the registry"
      },
      "pendingOwner()": {
        "notice": "Pending owner for two-step ownership transfer"
      },
      "registrars(address)": {
        "notice": "Authorized registrars who can attest identities"
      },
      "removeRegistrar(address)": {
        "notice": "Remove an authorized registrar"
      },
      "revokeIdentity(address)": {
        "notice": "Revoke a user's identity attestation"
      },
      "transferOwnership(address)": {
        "notice": "Initiate transfer of contract ownership"
      }
    },
    "notice": "On-chain encrypted identity registry for KYC or compliance platforms",
    "version": 1
  },
  "storageLayout": {
    "storage": [
      {
        "astId": 39700,
        "contract": "contracts/core/IdentityRegistry.sol:IdentityRegistry",
        "label": "birthYearOffsets",
        "offset": 0,
        "slot": "0",
        "type": "t_mapping(t_address,t_userDefinedValueType(euint8)41917)"
      },
      {
        "astId": 39706,
        "contract": "contracts/core/IdentityRegistry.sol:IdentityRegistry",
        "label": "countryCodes",
        "offset": 0,
        "slot": "1",
        "type": "t_mapping(t_address,t_userDefinedValueType(euint16)41919)"
      },
      {
        "astId": 39712,
        "contract": "contracts/core/IdentityRegistry.sol:IdentityRegistry",
        "label": "kycLevels",
        "offset": 0,
        "slot": "2",
        "type": "t_mapping(t_address,t_userDefinedValueType(euint8)41917)"
      },
      {
        "astId": 39718,
        "contract": "contracts/core/IdentityRegistry.sol:IdentityRegistry",
        "label": "isBlacklisted",
        "offset": 0,
        "slot": "3",
        "type": "t_mapping(t_address,t_userDefinedValueType(ebool)41915)"
      },
      {
        "astId": 39723,
        "contract": "contracts/core/IdentityRegistry.sol:IdentityRegistry",
        "label": "attestationTimestamp",
        "offset": 0,
        "slot": "4",
        "type": "t_mapping(t_address,t_uint256)"
      },
      {
        "astId": 39728,
        "contract": "contracts/core/IdentityRegistry.sol:IdentityRegistry",
        "label": "currentAttestationId",
        "offset": 0,
        "slot": "5",
        "type": "t_mapping(t_address,t_uint256)"
      },
      {
        "astId": 39733,
        "contract": "contracts/core/IdentityRegistry.sol:IdentityRegistry",
        "label": "latestAttestationId",
        "offset": 0,
        "slot": "6",
        "type": "t_mapping(t_address,t_uint256)"
      },
      {
        "astId": 39749,
        "contract": "contracts/core/IdentityRegistry.sol:IdentityRegistry",
        "label": "attestationHistory",
        "offset": 0,
        "slot": "7",
        "type": "t_mapping(t_address,t_mapping(t_uint256,t_struct(AttestationMetadata)39741_storage))"
      },
      {
        "astId": 39755,
        "contract": "contracts/core/IdentityRegistry.sol:IdentityRegistry",
        "label": "verificationResults",
        "offset": 0,
        "slot": "8",
        "type": "t_mapping(t_bytes32,t_userDefinedValueType(ebool)41915)"
      },
      {
        "astId": 39758,
        "contract": "contracts/core/IdentityRegistry.sol:IdentityRegistry",
        "label": "owner",
        "offset": 0,
        "slot": "9",
        "type": "t_address"
      },
      {
        "astId": 39761,
        "contract": "contracts/core/IdentityRegistry.sol:IdentityRegistry",
        "label": "pendingOwner",
        "offset": 0,
        "slot": "10",
        "type": "t_address"
      },
      {
        "astId": 39766,
        "contract": "contracts/core/IdentityRegistry.sol:IdentityRegistry",
        "label": "registrars",
        "offset": 0,
        "slot": "11",
        "type": "t_mapping(t_address,t_bool)"
      }
    ],
    "types": {
      "t_address": {
        "encoding": "inplace",
        "label": "address",
        "numberOfBytes": "20"
      },
      "t_bool": {
        "encoding": "inplace",
        "label": "bool",
        "numberOfBytes": "1"
      },
      "t_bytes32": {
        "encoding": "inplace",
        "label": "bytes32",
        "numberOfBytes": "32"
      },
      "t_mapping(t_address,t_bool)": {
        "encoding": "mapping",
        "key": "t_address",
        "label": "mapping(address => bool)",
        "numberOfBytes": "32",
        "value": "t_bool"
      },
      "t_mapping(t_address,t_mapping(t_uint256,t_struct(AttestationMetadata)39741_storage))": {
        "encoding": "mapping",
        "key": "t_address",
        "label": "mapping(address => mapping(uint256 => struct IdentityRegistry.AttestationMetadata))",
        "numberOfBytes": "32",
        "value": "t_mapping(t_uint256,t_struct(AttestationMetadata)39741_storage)"
      },
      "t_mapping(t_address,t_uint256)": {
        "encoding": "mapping",
        "key": "t_address",
        "label": "mapping(address => uint256)",
        "numberOfBytes": "32",
        "value": "t_uint256"
      },
      "t_mapping(t_address,t_userDefinedValueType(ebool)41915)": {
        "encoding": "mapping",
        "key": "t_address",
        "label": "mapping(address => ebool)",
        "numberOfBytes": "32",
        "value": "t_userDefinedValueType(ebool)41915"
      },
      "t_mapping(t_address,t_userDefinedValueType(euint16)41919)": {
        "encoding": "mapping",
        "key": "t_address",
        "label": "mapping(address => euint16)",
        "numberOfBytes": "32",
        "value": "t_userDefinedValueType(euint16)41919"
      },
      "t_mapping(t_address,t_userDefinedValueType(euint8)41917)": {
        "encoding": "mapping",
        "key": "t_address",
        "label": "mapping(address => euint8)",
        "numberOfBytes": "32",
        "value": "t_userDefinedValueType(euint8)41917"
      },
      "t_mapping(t_bytes32,t_userDefinedValueType(ebool)41915)": {
        "encoding": "mapping",
        "key": "t_bytes32",
        "label": "mapping(bytes32 => ebool)",
        "numberOfBytes": "32",
        "value": "t_userDefinedValueType(ebool)41915"
      },
      "t_mapping(t_uint256,t_struct(AttestationMetadata)39741_storage)": {
        "encoding": "mapping",
        "key": "t_uint256",
        "label": "mapping(uint256 => struct IdentityRegistry.AttestationMetadata)",
        "numberOfBytes": "32",
        "value": "t_struct(AttestationMetadata)39741_storage"
      },
      "t_struct(AttestationMetadata)39741_storage": {
        "encoding": "inplace",
        "label": "struct IdentityRegistry.AttestationMetadata",
        "members": [
          {
            "astId": 39736,
            "contract": "contracts/core/IdentityRegistry.sol:IdentityRegistry",
            "label": "timestamp",
            "offset": 0,
            "slot": "0",
            "type": "t_uint256"
          },
          {
            "astId": 39738,
            "contract": "contracts/core/IdentityRegistry.sol:IdentityRegistry",
            "label": "revokedAt",
            "offset": 0,
            "slot": "1",
            "type": "t_uint256"
          },
          {
            "astId": 39740,
            "contract": "contracts/core/IdentityRegistry.sol:IdentityRegistry",
            "label": "registrar",
            "offset": 0,
            "slot": "2",
            "type": "t_address"
          }
        ],
        "numberOfBytes": "96"
      },
      "t_uint256": {
        "encoding": "inplace",
        "label": "uint256",
        "numberOfBytes": "32"
      },
      "t_userDefinedValueType(ebool)41915": {
        "encoding": "inplace",
        "label": "ebool",
        "numberOfBytes": "32"
      },
      "t_userDefinedValueType(euint16)41919": {
        "encoding": "inplace",
        "label": "euint16",
        "numberOfBytes": "32"
      },
      "t_userDefinedValueType(euint8)41917": {
        "encoding": "inplace",
        "label": "euint8",
        "numberOfBytes": "32"
      }
    }
  }
}